:1000000023C032C031C030C02FC091C02DC02CC021
:100010002BC02AC029C028C027C026C025C0010285
:100020000000040000000000000000003800000094
:100030000000370002020202020202020202010272
:10004000040810202004100811241FBECFE5D1E0C1
:10005000DEBFCDBF20E0A0E6B0E001C01D92A93612
:10006000B207E1F7AED056C1CBCF90E0FC01E25C25
:10007000FF4F2491FC01EC5CFF4F8491882399F0A1
:1000800090E0880F991FFC01E25DFF4FA591B491AC
:10009000FC01E85DFF4F859194918FB7F894EC9146
:1000A000E22BEC938FBF089590E0FC01E25EFF4FDE
:1000B0003491FC01E25CFF4F2491FC01EC5CFF4FAA
:1000C000E491EE2339F1332399F0323071F028F4C2
:1000D000313071F48AB58F770AC0333011F0343083
:1000E00039F48CB58F7D8CBD03C08AB58F7D8ABDF8
:1000F000F0E0EE0FFF1FE85DFF4FA591B4918FB7C1
:10010000F894EC91611103C020952E2301C02E2B91
:100110002C938FBF08952FB7F8946091650070916C
:10012000660080916700909168002FBF08951F922C
:100130000F920FB60F9211242F933F938F939F939B
:10014000AF93BF938091650090916600A091670086
:10015000B09168003091640020E3230F2D3720F424
:100160004096A11DB11D05C023EB230F4196A11D93
:10017000B11D209364008093650090936600A09366
:100180006700B09368008091600090916100A09139
:100190006200B09163000196A11DB11D80936000C3
:1001A00090936100A0936200B0936300BF91AF9100
:1001B0009F918F913F912F910F900FBE0F901F90A5
:1001C000189578948AB582608ABD8AB581608ABDA7
:1001D00083B7826083BF83B7816083BF89B7826042
:1001E00089BF80B7826080BF3298319A309A379A3F
:1001F0008CB580648CBD80E038DF81E036DF82E042
:1002000034DF83E032DF84E030DF88E7C82ED12C92
:10021000E12CF12C9DE7892E912CA12CB12C2EEFF5
:10022000422E55245394612C712CC0E0D0E073DF32
:1002300023E730E040E050E04BD0DA01C9018370A1
:100240009927AA27BB27892B8A2B8B2B11F461E0D6
:1002500001C060E080E028DF5EDFA701960138D0B2
:10026000DA01C90183709927AA27BB27892B8A2B1A
:100270008B2B11F461E001C060E081E015DF4BDF02
:10028000A501940125D0DA01C90183709927AA2715
:10029000BB27892B8A2B8B2B11F461E001C060E016
:1002A00082E002DF38DFA301920112D020FD05C0F9
:1002B00060E083E0F9DE60E004C061E083E0F4DE4A
:1002C00061E084E0F1DE209709F4B1CF99DEAFCF91
:1002D000A1E21A2EAA1BBB1BFD010DC0AA1FBB1F4A
:1002E000EE1FFF1FA217B307E407F50720F0A21BBC
:1002F000B30BE40BF50B661F771F881F991F1A9429
:1003000069F760957095809590959B01AC01BD0152
:08031000CF010895F894FFCF1E
:00000001FF
