:1000000009C08FC08EC08DC08CC08BC08AC089C013
:1000100090C087C011241FBECFE9CDBF10E0A0E67D
:10002000B0E0E8E5F1E002C005900D92AA37B10713
:10003000D9F720E0AAE7B0E001C01D92A339B207CA
:10004000E1F700E401BD789401D084C0789425E6FE
:1000500030E0E0E6F0E061E070E0919187B3AB0161
:1000600001C0440F9A95EAF7842B87BB2E173F07F0
:10007000A1F709E710E0EE24E394F12C45E650E007
:100080002AE730E060E670E0EA0149905990699013
:100090007990AE0147D0F90180809180A280B38031
:1000A00088199909AA09BB0984159505A605B705FC
:1000B00060F138D0E90188809980AA80BB808819D6
:1000C0009909AA09BB0984159505A605B70548F045
:1000D000840C951CA61CB71C88829982AA82BB82BC
:1000E000E8CFE6B3EB01A881C7010A2E01C0880F53
:1000F0000A94EAF7F0E002C0F595E795AA95E2F7D1
:1001000098B3E0FD0BC0892B88BB2C5F3F4F6F5F1E
:100110007F4F0417150709F0B7CFB0CF809589231B
:10012000F3CF6ECFEEE8F89481919191A191B191C6
:100130001895EF93EFB7EF930F93EEE800810D5E04
:1001400002C000810F4F0193E0F70F91EF91EFBFD5
:08015000EF911895F894FFCF20
:10015800040302010090010000C2010000F4010044
:0A016800002602000058020000000B
:00000001FF
