:1000000009C016C015C015C013C012C011C010C061
:100010000FC00EC011241FBECFE9CDBF20E0A0E667
:10002000B0E001C01D92A236B207E1F725D050C062
:10003000E7CF1F920F920FB60F9211248F939F93C9
:10004000809160008F5F80936000811107C081E024
:1000500090916100911180E0809361008091610036
:10006000882311F0C49A01C0C4989F918F910F907A
:100070000FBE0F901F90189583E187BBC39A109213
:10008000610010926000B399FECFC09A8BE291E0BC
:100090000197F1F700C00000C0989FE52AEE80E0CC
:1000A000915020408040E1F700C00000C19A8BE2EF
:1000B00091E00197F1F700C00000C1989FEF22E5A1
:1000C00087E0915020408040E1F700C00000DBCF86
:0400D000F894FFCFD2
:00000001FF
