:100000000EC028C027C026C056C024C023C022C0AE
:1000100021C020C01FC01EC01DC01CC01BC0112499
:100020001FBECFE5D1E0DEBFCDBF10E0A0E6B0E05F
:10003000E0E2F5E002C005900D92AA37B107D9F7CA
:1000400020E0AAE7B0E001C01D92A03AB207E1F7B4
:1000500067D164C2D5CF26B330E0A90102C055955F
:1000600047958A95E2F7CA018170089548B321E067
:1000700030E0662349F0B90102C0660F771F8A9508
:10008000E2F7CB01842B09C0B90102C0660F771FCC
:100090008A95E2F7CB018095842388BB0895CF939E
:1000A000DF93EC01CCD19E0140E050E040D1CB0188
:1000B000DF91CF9108951F920F920FB60F921124E6
:1000C0002F933F938F939F93AF93BF93809198000B
:1000D00090919900A0919A00B0919B003091970067
:1000E00020E3230F2D3720F44096A11DB11D05C03C
:1000F00023EB230F4196A11DB11D20939700809300
:10010000980090939900A0939A00B0939B008091DF
:100110009C0090919D00A0919E00B0919F0001963F
:10012000A11DB11D80939C0090939D00A0939E0003
:10013000B0939F00BF91AF919F918F913F912F916D
:100140000F900FBE0F901F9018952FB7F8946091E5
:1001500098007091990080919A0090919B002FBF18
:10016000089583B7836083BF8AB583608ABD8AB5EB
:1001700080628ABD0895CF92DF92EF92FF920F9333
:100180001F93CF93DF936B017C01EA01DEDF0881CF
:1001900019812A813B81DC01CB01801B910BA20BD1
:1001A000B30B8C159D05AE05BF05D8F0CEDF0881D9
:1001B00019812A813B81AB01BC01401B510B620BB1
:1001C000730B4C155D056E057F0568F0D701C60100
:1001D000800F911FA21FB31F88839983AA83BB83BB
:1001E000E5CF80E001C081E0DF91CF911F910F91B9
:1001F000FF90EF90DF90CF900895EF92FF920F93D2
:100200001F93CF93DF9386E6E82E80E0F82E07E871
:1002100010E0C6E7D0E0F701619171918191919171
:100220007F01A801A8DF882369F0888114DF61E0DD
:10023000811160E088811ADF8881811103C00BDFA2
:1002400081110FC00C5F1F4F2196F6E7EF16F0E00B
:10025000FF0609F7DF91CF911F910F91FF90EF906B
:10026000089573DFDC01CB018053984FAF4FBF4F30
:100270008093830090938400A0938500B0938600C0
:1002800064DFDC01CB018856954CAF4FBF4F8093A4
:100290007F0090938000A0938100B0938200D2CF22
:1002A0000F931F93609164007091650080E090E06F
:1002B0004BE750E060DF882381F188EC90E0EFDECF
:1002C000019690936500809364003FDF0091830066
:1002D0001091840020918500309186000617170741
:1002E00028073907B8F431DF00917F0010918000B2
:1002F0002091810030918200601771078207930777
:1003000048F480E091E0CBDE80937A0080917A001F
:1003100088BD03C010927A00F9CF1F910F91089504
:100320008FE187BB78941DDF68DFBADFFDCF052E34
:1003300097FB16F400940FD057FD05D014D007FC9E
:1003400002D046F408C050954095309521953F4F16
:100350004F4F5F4F089590958095709561957F4FB1
:100360008F4F9F4F0895A1E21A2EAA1BBB1BFD01C0
:100370000DC0AA1FBB1FEE1FFF1FA217B307E40784
:10038000F50720F0A21BB30BE40BF50B661F771FDC
:10039000881F991F1A9469F76095709580959095BC
:1003A0009B01AC01BD01CF0108958F929F92AF9246
:1003B000BF92CF92DF92EF92FF92CF93DF93EC0147
:1003C000688179818A819B8161157105810591051B
:1003D00021F464E279ED8BE597E02DE133EF41E024
:1003E00050E0A5DF49015A0127EA31E440E050E03E
:1003F0007CD06B017C012CEE34EF4FEF5FEFC50139
:10040000B40173D0DC01CB018C0D9D1DAE1DBF1D51
:10041000B7FF03C00197A109B04888839983AA83D5
:10042000BB83BC01CD019F77DF91CF91FF90EF900F
:10043000DF90CF90BF90AF909F908F9008958F9254
:100440009F92AF92BF92CF92DF92EF92FF92609114
:10045000600070916100809162009091630061156D
:1004600071058105910521F464E279ED8BE597E052
:100470002DE133EF41E050E05ADF49015A0127EA0C
:1004800031E440E050E031D06B017C012CEE34EFE0
:100490004FEF5FEFC501B40128D0DC01CB018C0D1B
:1004A0009D1DAE1DBF1DB7FF03C00197A109B04838
:1004B0008093600090936100A0936200B09363000A
:1004C000BC01CD019F77FF90EF90DF90CF90BF9060
:1004D000AF909F908F90089560936000709361003B
:1004E00080936200909363000895EE27FF27AA2768
:1004F000BB2708C0A20FB31FE41FF51F220F331F35
:10050000441F551F969587957795679598F370408A
:10051000A9F7009799F7BD01CF010895F894FFCF8F
:1005200001000000C8007017000060220000C832FF
:0A0530000000204E0000040302004A
:00000001FF
